{
  "_format": "hh-sol-artifact-1",
  "contractName": "TrafficViolation",
  "sourceName": "contracts/TrafficViolation.sol",
  "abi": [
    {
      "inputs": [],
      "stateMutability": "nonpayable",
      "type": "constructor"
    },
    {
      "anonymous": false,
      "inputs": [
        {
          "indexed": false,
          "internalType": "string",
          "name": "plateNumber",
          "type": "string"
        },
        {
          "indexed": false,
          "internalType": "uint256",
          "name": "amount",
          "type": "uint256"
        },
        {
          "indexed": false,
          "internalType": "uint256",
          "name": "timestamp",
          "type": "uint256"
        }
      ],
      "name": "FinePaid",
      "type": "event"
    },
    {
      "anonymous": false,
      "inputs": [
        {
          "indexed": false,
          "internalType": "string",
          "name": "icNumber",
          "type": "string"
        },
        {
          "indexed": false,
          "internalType": "string",
          "name": "plateNumber",
          "type": "string"
        }
      ],
      "name": "PlateNumberRegistered",
      "type": "event"
    },
    {
      "anonymous": false,
      "inputs": [
        {
          "indexed": false,
          "internalType": "string",
          "name": "plateNumber",
          "type": "string"
        },
        {
          "indexed": false,
          "internalType": "uint256",
          "name": "timestamp",
          "type": "uint256"
        }
      ],
      "name": "ViolationRecorded",
      "type": "event"
    },
    {
      "inputs": [
        {
          "internalType": "string",
          "name": "_plateNumber",
          "type": "string"
        },
        {
          "internalType": "string",
          "name": "_color",
          "type": "string"
        },
        {
          "internalType": "string",
          "name": "_brand",
          "type": "string"
        },
        {
          "internalType": "string",
          "name": "_timestamp",
          "type": "string"
        },
        {
          "internalType": "int256",
          "name": "_latitude",
          "type": "int256"
        },
        {
          "internalType": "int256",
          "name": "_longitude",
          "type": "int256"
        }
      ],
      "name": "addViolationRecord",
      "outputs": [],
      "stateMutability": "nonpayable",
      "type": "function"
    },
    {
      "inputs": [
        {
          "internalType": "uint256",
          "name": "",
          "type": "uint256"
        }
      ],
      "name": "allPlateNumbers",
      "outputs": [
        {
          "internalType": "string",
          "name": "",
          "type": "string"
        }
      ],
      "stateMutability": "view",
      "type": "function"
    },
    {
      "inputs": [],
      "name": "defaultFineAmount",
      "outputs": [
        {
          "internalType": "uint256",
          "name": "",
          "type": "uint256"
        }
      ],
      "stateMutability": "view",
      "type": "function"
    },
    {
      "inputs": [],
      "name": "getAllPlateNumbersWithViolations",
      "outputs": [
        {
          "internalType": "string[]",
          "name": "",
          "type": "string[]"
        }
      ],
      "stateMutability": "view",
      "type": "function"
    },
    {
      "inputs": [
        {
          "internalType": "string",
          "name": "_plateNumber",
          "type": "string"
        }
      ],
      "name": "getAllViolationsForPlateNumber",
      "outputs": [
        {
          "components": [
            {
              "internalType": "string",
              "name": "plateNumber",
              "type": "string"
            },
            {
              "internalType": "string",
              "name": "color",
              "type": "string"
            },
            {
              "internalType": "string",
              "name": "brand",
              "type": "string"
            },
            {
              "internalType": "string",
              "name": "timestamp",
              "type": "string"
            },
            {
              "internalType": "bool",
              "name": "isPaid",
              "type": "bool"
            },
            {
              "internalType": "uint256",
              "name": "fineAmount",
              "type": "uint256"
            },
            {
              "internalType": "int256",
              "name": "latitude",
              "type": "int256"
            },
            {
              "internalType": "int256",
              "name": "longitude",
              "type": "int256"
            }
          ],
          "internalType": "struct TrafficViolation.Record[]",
          "name": "",
          "type": "tuple[]"
        }
      ],
      "stateMutability": "view",
      "type": "function"
    },
    {
      "inputs": [
        {
          "internalType": "string",
          "name": "_icNumber",
          "type": "string"
        }
      ],
      "name": "getEmailByIC",
      "outputs": [
        {
          "internalType": "string",
          "name": "",
          "type": "string"
        }
      ],
      "stateMutability": "view",
      "type": "function"
    },
    {
      "inputs": [
        {
          "internalType": "string",
          "name": "_plateNumber",
          "type": "string"
        }
      ],
      "name": "getEmailByPlateNumber",
      "outputs": [
        {
          "internalType": "string",
          "name": "",
          "type": "string"
        }
      ],
      "stateMutability": "view",
      "type": "function"
    },
    {
      "inputs": [
        {
          "internalType": "string",
          "name": "_icNumber",
          "type": "string"
        }
      ],
      "name": "getPlateNumbersByIC",
      "outputs": [
        {
          "internalType": "string[]",
          "name": "",
          "type": "string[]"
        }
      ],
      "stateMutability": "view",
      "type": "function"
    },
    {
      "inputs": [],
      "name": "getTotalRegisteredPlateNumbers",
      "outputs": [
        {
          "internalType": "uint256",
          "name": "",
          "type": "uint256"
        }
      ],
      "stateMutability": "view",
      "type": "function"
    },
    {
      "inputs": [
        {
          "internalType": "string",
          "name": "_plateNumber",
          "type": "string"
        }
      ],
      "name": "getTotalUnpaidFines",
      "outputs": [
        {
          "internalType": "uint256",
          "name": "",
          "type": "uint256"
        }
      ],
      "stateMutability": "view",
      "type": "function"
    },
    {
      "inputs": [
        {
          "internalType": "string",
          "name": "_plateNumber",
          "type": "string"
        }
      ],
      "name": "getViolationCount",
      "outputs": [
        {
          "internalType": "uint256",
          "name": "",
          "type": "uint256"
        }
      ],
      "stateMutability": "view",
      "type": "function"
    },
    {
      "inputs": [
        {
          "internalType": "string",
          "name": "_plateNumber",
          "type": "string"
        },
        {
          "internalType": "uint256",
          "name": "_index",
          "type": "uint256"
        }
      ],
      "name": "getViolationRecord",
      "outputs": [
        {
          "internalType": "string",
          "name": "plateNumber",
          "type": "string"
        },
        {
          "internalType": "string",
          "name": "color",
          "type": "string"
        },
        {
          "internalType": "string",
          "name": "brand",
          "type": "string"
        },
        {
          "internalType": "string",
          "name": "timestamp",
          "type": "string"
        },
        {
          "internalType": "bool",
          "name": "isPaid",
          "type": "bool"
        },
        {
          "internalType": "uint256",
          "name": "fineAmount",
          "type": "uint256"
        },
        {
          "internalType": "int256",
          "name": "latitude",
          "type": "int256"
        },
        {
          "internalType": "int256",
          "name": "longitude",
          "type": "int256"
        }
      ],
      "stateMutability": "view",
      "type": "function"
    },
    {
      "inputs": [
        {
          "internalType": "string",
          "name": "",
          "type": "string"
        }
      ],
      "name": "icToEmail",
      "outputs": [
        {
          "internalType": "string",
          "name": "",
          "type": "string"
        }
      ],
      "stateMutability": "view",
      "type": "function"
    },
    {
      "inputs": [
        {
          "internalType": "string",
          "name": "",
          "type": "string"
        },
        {
          "internalType": "uint256",
          "name": "",
          "type": "uint256"
        }
      ],
      "name": "icToPlateNumbers",
      "outputs": [
        {
          "internalType": "string",
          "name": "",
          "type": "string"
        }
      ],
      "stateMutability": "view",
      "type": "function"
    },
    {
      "inputs": [],
      "name": "owner",
      "outputs": [
        {
          "internalType": "address",
          "name": "",
          "type": "address"
        }
      ],
      "stateMutability": "view",
      "type": "function"
    },
    {
      "inputs": [
        {
          "internalType": "string",
          "name": "_plateNumber",
          "type": "string"
        }
      ],
      "name": "payFine",
      "outputs": [],
      "stateMutability": "payable",
      "type": "function"
    },
    {
      "inputs": [
        {
          "internalType": "string",
          "name": "",
          "type": "string"
        }
      ],
      "name": "plateNumberToIC",
      "outputs": [
        {
          "internalType": "string",
          "name": "",
          "type": "string"
        }
      ],
      "stateMutability": "view",
      "type": "function"
    },
    {
      "inputs": [
        {
          "internalType": "string",
          "name": "_icNumber",
          "type": "string"
        },
        {
          "internalType": "string",
          "name": "_plateNumber",
          "type": "string"
        },
        {
          "internalType": "string",
          "name": "_email",
          "type": "string"
        }
      ],
      "name": "registerPlateNumber",
      "outputs": [],
      "stateMutability": "nonpayable",
      "type": "function"
    },
    {
      "inputs": [
        {
          "internalType": "uint256",
          "name": "_amount",
          "type": "uint256"
        }
      ],
      "name": "setDefaultFineAmount",
      "outputs": [],
      "stateMutability": "nonpayable",
      "type": "function"
    },
    {
      "inputs": [
        {
          "internalType": "string",
          "name": "",
          "type": "string"
        },
        {
          "internalType": "uint256",
          "name": "",
          "type": "uint256"
        }
      ],
      "name": "violationRecords",
      "outputs": [
        {
          "internalType": "string",
          "name": "plateNumber",
          "type": "string"
        },
        {
          "internalType": "string",
          "name": "color",
          "type": "string"
        },
        {
          "internalType": "string",
          "name": "brand",
          "type": "string"
        },
        {
          "internalType": "string",
          "name": "timestamp",
          "type": "string"
        },
        {
          "internalType": "bool",
          "name": "isPaid",
          "type": "bool"
        },
        {
          "internalType": "uint256",
          "name": "fineAmount",
          "type": "uint256"
        },
        {
          "internalType": "int256",
          "name": "latitude",
          "type": "int256"
        },
        {
          "internalType": "int256",
          "name": "longitude",
          "type": "int256"
        }
      ],
      "stateMutability": "view",
      "type": "function"
    },
    {
      "inputs": [],
      "name": "withdrawFunds",
      "outputs": [],
      "stateMutability": "nonpayable",
      "type": "function"
    }
  ],
  "bytecode": "0x6080604052662386f26fc10000600155348015601a57600080fd5b50336000806101000a81548173ffffffffffffffffffffffffffffffffffffffff021916908373ffffffffffffffffffffffffffffffffffffffff1602179055506134e08061006a6000396000f3fe60806040526004361061012a5760003560e01c806393339caa116100ab578063da1264bc1161006f578063da1264bc1461044c578063e15937d514610477578063ef7126c5146104b4578063f429d8c4146104d0578063f96113f71461050d578063ff41a32e1461054a5761012a565b806393339caa146103435780639a5ec25114610380578063aad366f0146103a9578063ab8d9a60146103d2578063d0a5c2681461040f5761012a565b80634e26e1ca116100f25780634e26e1ca14610241578063514960d71461026c5780635a21ca80146102a9578063754aeb2c146102ed5780638da5cb5b146103185761012a565b80630ecfca111461012f57806310702b131461016c57806317876be5146101b057806324600fc3146101ed5780632f0bdec114610204575b600080fd5b34801561013b57600080fd5b5061015660048036038101906101519190612441565b610573565b60405161016391906124a3565b60405180910390f35b34801561017857600080fd5b50610193600480360381019061018e91906124ea565b61059e565b6040516101a79897969594939291906125f9565b60405180910390f35b3480156101bc57600080fd5b506101d760048036038101906101d29190612441565b610922565b6040516101e49190612693565b60405180910390f35b3480156101f957600080fd5b50610202610ac2565b005b34801561021057600080fd5b5061022b60048036038101906102269190612441565b610bb9565b6040516102389190612693565b60405180910390f35b34801561024d57600080fd5b50610256610c6f565b60405161026391906124a3565b60405180910390f35b34801561027857600080fd5b50610293600480360381019061028e9190612441565b610c75565b6040516102a09190612693565b60405180910390f35b3480156102b557600080fd5b506102d060048036038101906102cb91906124ea565b610d92565b6040516102e49897969594939291906125f9565b60405180910390f35b3480156102f957600080fd5b5061030261103a565b60405161030f91906127c1565b60405180910390f35b34801561032457600080fd5b5061032d61122f565b60405161033a9190612824565b60405180910390f35b34801561034f57600080fd5b5061036a60048036038101906103659190612441565b611253565b6040516103779190612693565b60405180910390f35b34801561038c57600080fd5b506103a760048036038101906103a2919061286b565b611309565b005b3480156103b557600080fd5b506103d060048036038101906103cb9190612968565b611569565b005b3480156103de57600080fd5b506103f960048036038101906103f49190612441565b611780565b60405161040691906127c1565b60405180910390f35b34801561041b57600080fd5b5061043660048036038101906104319190612441565b611877565b6040516104439190612bc3565b60405180910390f35b34801561045857600080fd5b50610461611b76565b60405161046e91906124a3565b60405180910390f35b34801561048357600080fd5b5061049e600480360381019061049991906124ea565b611b83565b6040516104ab9190612693565b60405180910390f35b6104ce60048036038101906104c99190612441565b611c52565b005b3480156104dc57600080fd5b506104f760048036038101906104f29190612441565b611e33565b60405161050491906124a3565b60405180910390f35b34801561051957600080fd5b50610534600480360381019061052f9190612be5565b6121a3565b6040516105419190612693565b60405180910390f35b34801561055657600080fd5b50610571600480360381019061056c9190612be5565b61224f565b005b60006004826040516105859190612c4e565b9081526020016040518091039020805490509050919050565b60608060608060008060008060048a6040516105ba9190612c4e565b908152602001604051809103902080549050891061060d576040517f08c379a000000000000000000000000000000000000000000000000000000000815260040161060490612cb1565b60405180910390fd5b600060048b60405161061f9190612c4e565b90815260200160405180910390208a8154811061063f5761063e612cd1565b5b90600052602060002090600802016040518061010001604052908160008201805461066990612d2f565b80601f016020809104026020016040519081016040528092919081815260200182805461069590612d2f565b80156106e25780601f106106b7576101008083540402835291602001916106e2565b820191906000526020600020905b8154815290600101906020018083116106c557829003601f168201915b505050505081526020016001820180546106fb90612d2f565b80601f016020809104026020016040519081016040528092919081815260200182805461072790612d2f565b80156107745780601f1061074957610100808354040283529160200191610774565b820191906000526020600020905b81548152906001019060200180831161075757829003601f168201915b5050505050815260200160028201805461078d90612d2f565b80601f01602080910402602001604051908101604052809291908181526020018280546107b990612d2f565b80156108065780601f106107db57610100808354040283529160200191610806565b820191906000526020600020905b8154815290600101906020018083116107e957829003601f168201915b5050505050815260200160038201805461081f90612d2f565b80601f016020809104026020016040519081016040528092919081815260200182805461084b90612d2f565b80156108985780601f1061086d57610100808354040283529160200191610898565b820191906000526020600020905b81548152906001019060200180831161087b57829003601f168201915b505050505081526020016004820160009054906101000a900460ff1615151515815260200160058201548152602001600682015481526020016007820154815250509050806000015181602001518260400151836060015184608001518560a001518660c001518760e0015198509850985098509850985098509850509295985092959890939650565b606060006003836040516109369190612c4e565b9081526020016040518091039020805461094f90612d2f565b80601f016020809104026020016040519081016040528092919081815260200182805461097b90612d2f565b80156109c85780601f1061099d576101008083540402835291602001916109c8565b820191906000526020600020905b8154815290600101906020018083116109ab57829003601f168201915b505050505090506000815111610a13576040517f08c379a0000000000000000000000000000000000000000000000000000000008152600401610a0a90612dac565b60405180910390fd5b600581604051610a239190612c4e565b90815260200160405180910390208054610a3c90612d2f565b80601f0160208091040260200160405190810160405280929190818152602001828054610a6890612d2f565b8015610ab55780601f10610a8a57610100808354040283529160200191610ab5565b820191906000526020600020905b815481529060010190602001808311610a9857829003601f168201915b5050505050915050919050565b60008054906101000a900473ffffffffffffffffffffffffffffffffffffffff1673ffffffffffffffffffffffffffffffffffffffff163373ffffffffffffffffffffffffffffffffffffffff1614610b50576040517f08c379a0000000000000000000000000000000000000000000000000000000008152600401610b4790612e3e565b60405180910390fd5b60008054906101000a900473ffffffffffffffffffffffffffffffffffffffff1673ffffffffffffffffffffffffffffffffffffffff166108fc479081150290604051600060405180830381858888f19350505050158015610bb6573d6000803e3d6000fd5b50565b6005818051602081018201805184825260208301602085012081835280955050505050506000915090508054610bee90612d2f565b80601f0160208091040260200160405190810160405280929190818152602001828054610c1a90612d2f565b8015610c675780601f10610c3c57610100808354040283529160200191610c67565b820191906000526020600020905b815481529060010190602001808311610c4a57829003601f168201915b505050505081565b60015481565b60606000600583604051610c899190612c4e565b90815260200160405180910390208054610ca290612d2f565b905011610ce4576040517f08c379a0000000000000000000000000000000000000000000000000000000008152600401610cdb90612eaa565b60405180910390fd5b600582604051610cf49190612c4e565b90815260200160405180910390208054610d0d90612d2f565b80601f0160208091040260200160405190810160405280929190818152602001828054610d3990612d2f565b8015610d865780601f10610d5b57610100808354040283529160200191610d86565b820191906000526020600020905b815481529060010190602001808311610d6957829003601f168201915b50505050509050919050565b6004828051602081018201805184825260208301602085012081835280955050505050508181548110610dc457600080fd5b906000526020600020906008020160009150915050806000018054610de890612d2f565b80601f0160208091040260200160405190810160405280929190818152602001828054610e1490612d2f565b8015610e615780601f10610e3657610100808354040283529160200191610e61565b820191906000526020600020905b815481529060010190602001808311610e4457829003601f168201915b505050505090806001018054610e7690612d2f565b80601f0160208091040260200160405190810160405280929190818152602001828054610ea290612d2f565b8015610eef5780601f10610ec457610100808354040283529160200191610eef565b820191906000526020600020905b815481529060010190602001808311610ed257829003601f168201915b505050505090806002018054610f0490612d2f565b80601f0160208091040260200160405190810160405280929190818152602001828054610f3090612d2f565b8015610f7d5780601f10610f5257610100808354040283529160200191610f7d565b820191906000526020600020905b815481529060010190602001808311610f6057829003601f168201915b505050505090806003018054610f9290612d2f565b80601f0160208091040260200160405190810160405280929190818152602001828054610fbe90612d2f565b801561100b5780601f10610fe05761010080835404028352916020019161100b565b820191906000526020600020905b815481529060010190602001808311610fee57829003601f168201915b5050505050908060040160009054906101000a900460ff16908060050154908060060154908060070154905088565b60606000805b6006805490508110156110b057600060046006838154811061106557611064612cd1565b5b9060005260206000200160405161107c9190612f62565b90815260200160405180910390208054905011156110a357818061109f90612fa8565b9250505b8080600101915050611040565b5060008167ffffffffffffffff8111156110cd576110cc612316565b5b60405190808252806020026020018201604052801561110057816020015b60608152602001906001900390816110eb5790505b5090506000805b6006805490508110156112255760006006828154811061112a57611129612cd1565b5b90600052602060002001805461113f90612d2f565b80601f016020809104026020016040519081016040528092919081815260200182805461116b90612d2f565b80156111b85780601f1061118d576101008083540402835291602001916111b8565b820191906000526020600020905b81548152906001019060200180831161119b57829003601f168201915b5050505050905060006004826040516111d19190612c4e565b908152602001604051809103902080549050111561121757808484815181106111fd576111fc612cd1565b5b6020026020010181905250828061121390612fa8565b9350505b508080600101915050611107565b5081935050505090565b60008054906101000a900473ffffffffffffffffffffffffffffffffffffffff1681565b600381805160208101820180518482526020830160208501208183528095505050505050600091509050805461128890612d2f565b80601f01602080910402602001604051908101604052809291908181526020018280546112b490612d2f565b80156113015780601f106112d657610100808354040283529160200191611301565b820191906000526020600020905b8154815290600101906020018083116112e457829003601f168201915b505050505081565b60008054906101000a900473ffffffffffffffffffffffffffffffffffffffff1673ffffffffffffffffffffffffffffffffffffffff163373ffffffffffffffffffffffffffffffffffffffff1614611397576040517f08c379a000000000000000000000000000000000000000000000000000000000815260040161138e90612e3e565b60405180910390fd5b60006003876040516113a99190612c4e565b908152602001604051809103902080546113c290612d2f565b905011611404576040517f08c379a00000000000000000000000000000000000000000000000000000000081526004016113fb90612dac565b60405180910390fd5b600060405180610100016040528088815260200187815260200186815260200185815260200160001515815260200160015481526020018481526020018381525090506004876040516114579190612c4e565b908152602001604051809103902081908060018154018082558091505060019003906000526020600020906008020160009091909190915060008201518160000190816114a49190613187565b5060208201518160010190816114ba9190613187565b5060408201518160020190816114d09190613187565b5060608201518160030190816114e69190613187565b5060808201518160040160006101000a81548160ff02191690831515021790555060a0820151816005015560c0820151816006015560e0820151816007015550507f75278b119da3192756e8a7523d48ff82bb859a7276a6318a8239c73e4a0647928742604051611558929190613259565b60405180910390a150505050505050565b60008054906101000a900473ffffffffffffffffffffffffffffffffffffffff1673ffffffffffffffffffffffffffffffffffffffff163373ffffffffffffffffffffffffffffffffffffffff16146115f7576040517f08c379a00000000000000000000000000000000000000000000000000000000081526004016115ee90612e3e565b60405180910390fd5b60006003836040516116099190612c4e565b9081526020016040518091039020805461162290612d2f565b905014611664576040517f08c379a000000000000000000000000000000000000000000000000000000000815260040161165b906132d5565b60405180910390fd5b6002836040516116749190612c4e565b9081526020016040518091039020829080600181540180825580915050600190039060005260206000200160009091909190915090816116b49190613187565b50826003836040516116c69190612c4e565b908152602001604051809103902090816116e09190613187565b50806005846040516116f29190612c4e565b9081526020016040518091039020908161170c9190613187565b506006829080600181540180825580915050600190039060005260206000200160009091909190915090816117419190613187565b507f877f281c60f83e3e5596c715ab65df162333e886a60b5c652a49653b8601730483836040516117739291906132f5565b60405180910390a1505050565b60606002826040516117929190612c4e565b9081526020016040518091039020805480602002602001604051908101604052809291908181526020016000905b8282101561186c5783829060005260206000200180546117df90612d2f565b80601f016020809104026020016040519081016040528092919081815260200182805461180b90612d2f565b80156118585780601f1061182d57610100808354040283529160200191611858565b820191906000526020600020905b81548152906001019060200180831161183b57829003601f168201915b5050505050815260200190600101906117c0565b505050509050919050565b60606004826040516118899190612c4e565b9081526020016040518091039020805480602002602001604051908101604052809291908181526020016000905b82821015611b6b5783829060005260206000209060080201604051806101000160405290816000820180546118eb90612d2f565b80601f016020809104026020016040519081016040528092919081815260200182805461191790612d2f565b80156119645780601f1061193957610100808354040283529160200191611964565b820191906000526020600020905b81548152906001019060200180831161194757829003601f168201915b5050505050815260200160018201805461197d90612d2f565b80601f01602080910402602001604051908101604052809291908181526020018280546119a990612d2f565b80156119f65780601f106119cb576101008083540402835291602001916119f6565b820191906000526020600020905b8154815290600101906020018083116119d957829003601f168201915b50505050508152602001600282018054611a0f90612d2f565b80601f0160208091040260200160405190810160405280929190818152602001828054611a3b90612d2f565b8015611a885780601f10611a5d57610100808354040283529160200191611a88565b820191906000526020600020905b815481529060010190602001808311611a6b57829003601f168201915b50505050508152602001600382018054611aa190612d2f565b80601f0160208091040260200160405190810160405280929190818152602001828054611acd90612d2f565b8015611b1a5780601f10611aef57610100808354040283529160200191611b1a565b820191906000526020600020905b815481529060010190602001808311611afd57829003601f168201915b505050505081526020016004820160009054906101000a900460ff161515151581526020016005820154815260200160068201548152602001600782015481525050815260200190600101906118b7565b505050509050919050565b6000600680549050905090565b6002828051602081018201805184825260208301602085012081835280955050505050508181548110611bb557600080fd5b90600052602060002001600091509150508054611bd190612d2f565b80601f0160208091040260200160405190810160405280929190818152602001828054611bfd90612d2f565b8015611c4a5780601f10611c1f57610100808354040283529160200191611c4a565b820191906000526020600020905b815481529060010190602001808311611c2d57829003601f168201915b505050505081565b6000600482604051611c649190612c4e565b908152602001604051809103902090506000611c7f83611e33565b905060008111611cc4576040517f08c379a0000000000000000000000000000000000000000000000000000000008152600401611cbb90613378565b60405180910390fd5b80341015611d07576040517f08c379a0000000000000000000000000000000000000000000000000000000008152600401611cfe906133e4565b60405180910390fd5b60005b8280549050811015611d9757828181548110611d2957611d28612cd1565b5b906000526020600020906008020160040160009054906101000a900460ff16611d8a576001838281548110611d6157611d60612cd1565b5b906000526020600020906008020160040160006101000a81548160ff0219169083151502179055505b8080600101915050611d0a565b507f7f988c94264accb15250ee0d6b2704f146f1662cad992874d2bb55a670eb0b11833442604051611dcb93929190613404565b60405180910390a180341115611e2e573373ffffffffffffffffffffffffffffffffffffffff166108fc8234611e019190613442565b9081150290604051600060405180830381858888f19350505050158015611e2c573d6000803e3d6000fd5b505b505050565b600080600483604051611e469190612c4e565b9081526020016040518091039020805480602002602001604051908101604052809291908181526020016000905b82821015612128578382906000526020600020906008020160405180610100016040529081600082018054611ea890612d2f565b80601f0160208091040260200160405190810160405280929190818152602001828054611ed490612d2f565b8015611f215780601f10611ef657610100808354040283529160200191611f21565b820191906000526020600020905b815481529060010190602001808311611f0457829003601f168201915b50505050508152602001600182018054611f3a90612d2f565b80601f0160208091040260200160405190810160405280929190818152602001828054611f6690612d2f565b8015611fb35780601f10611f8857610100808354040283529160200191611fb3565b820191906000526020600020905b815481529060010190602001808311611f9657829003601f168201915b50505050508152602001600282018054611fcc90612d2f565b80601f0160208091040260200160405190810160405280929190818152602001828054611ff890612d2f565b80156120455780601f1061201a57610100808354040283529160200191612045565b820191906000526020600020905b81548152906001019060200180831161202857829003601f168201915b5050505050815260200160038201805461205e90612d2f565b80601f016020809104026020016040519081016040528092919081815260200182805461208a90612d2f565b80156120d75780601f106120ac576101008083540402835291602001916120d7565b820191906000526020600020905b8154815290600101906020018083116120ba57829003601f168201915b505050505081526020016004820160009054906101000a900460ff16151515158152602001600582015481526020016006820154815260200160078201548152505081526020019060010190611e74565b5050505090506000805b82518110156121985782818151811061214e5761214d612cd1565b5b60200260200101516080015161218b5782818151811061217157612170612cd1565b5b602002602001015160a00151826121889190613476565b91505b8080600101915050612132565b508092505050919050565b600681815481106121b357600080fd5b9060005260206000200160009150905080546121ce90612d2f565b80601f01602080910402602001604051908101604052809291908181526020018280546121fa90612d2f565b80156122475780601f1061221c57610100808354040283529160200191612247565b820191906000526020600020905b81548152906001019060200180831161222a57829003601f168201915b505050505081565b60008054906101000a900473ffffffffffffffffffffffffffffffffffffffff1673ffffffffffffffffffffffffffffffffffffffff163373ffffffffffffffffffffffffffffffffffffffff16146122dd576040517f08c379a00000000000000000000000000000000000000000000000000000000081526004016122d490612e3e565b60405180910390fd5b8060018190555050565b6000604051905090565b600080fd5b600080fd5b600080fd5b600080fd5b6000601f19601f8301169050919050565b7f4e487b7100000000000000000000000000000000000000000000000000000000600052604160045260246000fd5b61234e82612305565b810181811067ffffffffffffffff8211171561236d5761236c612316565b5b80604052505050565b60006123806122e7565b905061238c8282612345565b919050565b600067ffffffffffffffff8211156123ac576123ab612316565b5b6123b582612305565b9050602081019050919050565b82818337600083830152505050565b60006123e46123df84612391565b612376565b905082815260208101848484011115612400576123ff612300565b5b61240b8482856123c2565b509392505050565b600082601f830112612428576124276122fb565b5b81356124388482602086016123d1565b91505092915050565b600060208284031215612457576124566122f1565b5b600082013567ffffffffffffffff811115612475576124746122f6565b5b61248184828501612413565b91505092915050565b6000819050919050565b61249d8161248a565b82525050565b60006020820190506124b86000830184612494565b92915050565b6124c78161248a565b81146124d257600080fd5b50565b6000813590506124e4816124be565b92915050565b60008060408385031215612501576125006122f1565b5b600083013567ffffffffffffffff81111561251f5761251e6122f6565b5b61252b85828601612413565b925050602061253c858286016124d5565b9150509250929050565b600081519050919050565b600082825260208201905092915050565b60005b83811015612580578082015181840152602081019050612565565b60008484015250505050565b600061259782612546565b6125a18185612551565b93506125b1818560208601612562565b6125ba81612305565b840191505092915050565b60008115159050919050565b6125da816125c5565b82525050565b6000819050919050565b6125f3816125e0565b82525050565b6000610100820190508181036000830152612614818b61258c565b90508181036020830152612628818a61258c565b9050818103604083015261263c818961258c565b90508181036060830152612650818861258c565b905061265f60808301876125d1565b61266c60a0830186612494565b61267960c08301856125ea565b61268660e08301846125ea565b9998505050505050505050565b600060208201905081810360008301526126ad818461258c565b905092915050565b600081519050919050565b600082825260208201905092915050565b6000819050602082019050919050565b600082825260208201905092915050565b60006126fd82612546565b61270781856126e1565b9350612717818560208601612562565b61272081612305565b840191505092915050565b600061273783836126f2565b905092915050565b6000602082019050919050565b6000612757826126b5565b61276181856126c0565b935083602082028501612773856126d1565b8060005b858110156127af5784840389528151612790858261272b565b945061279b8361273f565b925060208a01995050600181019050612777565b50829750879550505050505092915050565b600060208201905081810360008301526127db818461274c565b905092915050565b600073ffffffffffffffffffffffffffffffffffffffff82169050919050565b600061280e826127e3565b9050919050565b61281e81612803565b82525050565b60006020820190506128396000830184612815565b92915050565b612848816125e0565b811461285357600080fd5b50565b6000813590506128658161283f565b92915050565b60008060008060008060c08789031215612888576128876122f1565b5b600087013567ffffffffffffffff8111156128a6576128a56122f6565b5b6128b289828a01612413565b965050602087013567ffffffffffffffff8111156128d3576128d26122f6565b5b6128df89828a01612413565b955050604087013567ffffffffffffffff811115612900576128ff6122f6565b5b61290c89828a01612413565b945050606087013567ffffffffffffffff81111561292d5761292c6122f6565b5b61293989828a01612413565b935050608061294a89828a01612856565b92505060a061295b89828a01612856565b9150509295509295509295565b600080600060608486031215612981576129806122f1565b5b600084013567ffffffffffffffff81111561299f5761299e6122f6565b5b6129ab86828701612413565b935050602084013567ffffffffffffffff8111156129cc576129cb6122f6565b5b6129d886828701612413565b925050604084013567ffffffffffffffff8111156129f9576129f86122f6565b5b612a0586828701612413565b9150509250925092565b600081519050919050565b600082825260208201905092915050565b6000819050602082019050919050565b612a44816125c5565b82525050565b612a538161248a565b82525050565b612a62816125e0565b82525050565b6000610100830160008301518482036000860152612a8682826126f2565b91505060208301518482036020860152612aa082826126f2565b91505060408301518482036040860152612aba82826126f2565b91505060608301518482036060860152612ad482826126f2565b9150506080830151612ae96080860182612a3b565b5060a0830151612afc60a0860182612a4a565b5060c0830151612b0f60c0860182612a59565b5060e0830151612b2260e0860182612a59565b508091505092915050565b6000612b398383612a68565b905092915050565b6000602082019050919050565b6000612b5982612a0f565b612b638185612a1a565b935083602082028501612b7585612a2b565b8060005b85811015612bb15784840389528151612b928582612b2d565b9450612b9d83612b41565b925060208a01995050600181019050612b79565b50829750879550505050505092915050565b60006020820190508181036000830152612bdd8184612b4e565b905092915050565b600060208284031215612bfb57612bfa6122f1565b5b6000612c09848285016124d5565b91505092915050565b600081905092915050565b6000612c2882612546565b612c328185612c12565b9350612c42818560208601612562565b80840191505092915050565b6000612c5a8284612c1d565b915081905092915050565b7f496e76616c696420696e64657800000000000000000000000000000000000000600082015250565b6000612c9b600d83612551565b9150612ca682612c65565b602082019050919050565b60006020820190508181036000830152612cca81612c8e565b9050919050565b7f4e487b7100000000000000000000000000000000000000000000000000000000600052603260045260246000fd5b7f4e487b7100000000000000000000000000000000000000000000000000000000600052602260045260246000fd5b60006002820490506001821680612d4757607f821691505b602082108103612d5a57612d59612d00565b5b50919050565b7f506c617465206e756d626572206e6f7420726567697374657265640000000000600082015250565b6000612d96601b83612551565b9150612da182612d60565b602082019050919050565b60006020820190508181036000830152612dc581612d89565b9050919050565b7f4f6e6c79206f776e65722063616e2063616c6c20746869732066756e6374696f60008201527f6e00000000000000000000000000000000000000000000000000000000000000602082015250565b6000612e28602183612551565b9150612e3382612dcc565b604082019050919050565b60006020820190508181036000830152612e5781612e1b565b9050919050565b7f4943206e756d626572206e6f7420726567697374657265640000000000000000600082015250565b6000612e94601883612551565b9150612e9f82612e5e565b602082019050919050565b60006020820190508181036000830152612ec381612e87565b9050919050565b60008190508160005260206000209050919050565b60008154612eec81612d2f565b612ef68186612c12565b94506001821660008114612f115760018114612f2657612f59565b60ff1983168652811515820286019350612f59565b612f2f85612eca565b60005b83811015612f5157815481890152600182019150602081019050612f32565b838801955050505b50505092915050565b6000612f6e8284612edf565b915081905092915050565b7f4e487b7100000000000000000000000000000000000000000000000000000000600052601160045260246000fd5b6000612fb38261248a565b91507fffffffffffffffffffffffffffffffffffffffffffffffffffffffffffffffff8203612fe557612fe4612f79565b5b600182019050919050565b60006020601f8301049050919050565b600082821b905092915050565b60006008830261303d7fffffffffffffffffffffffffffffffffffffffffffffffffffffffffffffffff82613000565b6130478683613000565b95508019841693508086168417925050509392505050565b6000819050919050565b600061308461307f61307a8461248a565b61305f565b61248a565b9050919050565b6000819050919050565b61309e83613069565b6130b26130aa8261308b565b84845461300d565b825550505050565b600090565b6130c76130ba565b6130d2818484613095565b505050565b5b818110156130f6576130eb6000826130bf565b6001810190506130d8565b5050565b601f82111561313b5761310c81612eca565b61311584612ff0565b81016020851015613124578190505b61313861313085612ff0565b8301826130d7565b50505b505050565b600082821c905092915050565b600061315e60001984600802613140565b1980831691505092915050565b6000613177838361314d565b9150826002028217905092915050565b61319082612546565b67ffffffffffffffff8111156131a9576131a8612316565b5b6131b38254612d2f565b6131be8282856130fa565b600060209050601f8311600181146131f157600084156131df578287015190505b6131e9858261316b565b865550613251565b601f1984166131ff86612eca565b60005b8281101561322757848901518255600182019150602085019450602081019050613202565b868310156132445784890151613240601f89168261314d565b8355505b6001600288020188555050505b505050505050565b60006040820190508181036000830152613273818561258c565b90506132826020830184612494565b9392505050565b7f506c617465206e756d62657220616c7265616479207265676973746572656400600082015250565b60006132bf601f83612551565b91506132ca82613289565b602082019050919050565b600060208201905081810360008301526132ee816132b2565b9050919050565b6000604082019050818103600083015261330f818561258c565b90508181036020830152613323818461258c565b90509392505050565b7f4e6f20756e706169642066696e65730000000000000000000000000000000000600082015250565b6000613362600f83612551565b915061336d8261332c565b602082019050919050565b6000602082019050818103600083015261339181613355565b9050919050565b7f496e73756666696369656e74207061796d656e74000000000000000000000000600082015250565b60006133ce601483612551565b91506133d982613398565b602082019050919050565b600060208201905081810360008301526133fd816133c1565b9050919050565b6000606082019050818103600083015261341e818661258c565b905061342d6020830185612494565b61343a6040830184612494565b949350505050565b600061344d8261248a565b91506134588361248a565b92508282039050818111156134705761346f612f79565b5b92915050565b60006134818261248a565b915061348c8361248a565b92508282019050808211156134a4576134a3612f79565b5b9291505056fea264697066735822122047a23e56e71c00f7877172d79948d7d0bea5a49881caa0b81a62f620cc0104cd64736f6c634300081a0033",
  "linkReferences": {},
  "deployedLinkReferences": {}
}